:020000040800F2
:10000000000001204529000865280008672800082D
:10001000692800086B2800086D280008000000000F
:10002000000000000000000000000000E15E000889
:100030006F28000800000000715F000871280008A8
:100040008D2900088D2900088D2900088D290008B8
:100050008D2900088D2900088D2900088D290008A8
:100060008D2900088D2900088D2900088D29000898
:100070008D2900088D2900088D2900088D29000888
:100080008D2900088D2900088D2900088D29000878
:100090008D2900088D2900088D2900088D29000868
:1000A0008D2900088D2900088D2900088D29000858
:1000B0008D2900088D2900088D2900088D29000848
:1000C0008D2900088D2900088D2900088D29000838
:1000D0008D2900088D2900088D290008892800082D
:1000E0008D2900088D2900088D2900088D29000818
:1000F0008D2900088D2900088D2900088D29000808
:100100008D2900088D2900088D2900088D290008F7
:100110008D2900088D2900088D2900088D290008E7
:100120008D2900088D2900088D2900088D290008D7
:1001300000000000000000000000000000000000BF
:1001400000000000000000000000000000000000AF
:10015000000000000000000000000000000000009F
:10016000000000000000000000000000000000008F
:10017000000000000000000000000000000000007F
:10018000000000000000000000000000000000006F
:10019000000000000000000000000000000000005F
:1001A000000000000000000000000000000000004F
:1001B000000000000000000000000000000000003F
:1001C000000000000000000000000000000000002F
:1001D000000000000000000000000000000000001F
:0401E0005FF8E0F1F3
:1001F00010B5054C237833B9044B13B10448AFF361
:1002000000800123237010BDE801002000000000E1
:10021000ACC2000808B5034B1BB103490348AFF358
:10022000008008BD00000000EC010020ACC2000806
:10023000034613F8012B002AFBD1181A0138704726
:1002400081F0004102E000BF83F0004330B54FEA87
:1002500041044FEA430594EA050F08BF90EA020FF4
:100260001FBF54EA000C55EA020C7FEA645C7FEA87
:10027000655C00F0E2804FEA5454D4EB5555B8BFAA
:100280006D420CDD2C4480EA020281EA030382EA1B
:10029000000083EA010180EA020281EA0303362DAD
:1002A00088BF30BD11F0004F4FEA01314FF4801C80
:1002B0004CEA113102D0404261EB410113F0004F92
:1002C0004FEA03334CEA133302D0524263EB430349
:1002D00094EA050F00F0A780A4F10104D5F1200EE7
:1002E0000DDB02FA0EFC22FA05F2801841F1000142
:1002F00003FA0EF2801843FA05F359410EE0A5F116
:1003000020050EF1200E012A03FA0EFC28BF4CF046
:10031000020C43FA05F3C01851EBE37101F00045FC
:1003200007D54FF0000EDCF1000C7EEB00006EEB09
:100330000101B1F5801F1BD3B1F5001F0CD3490893
:100340005FEA30004FEA3C0C04F101044FEA4452EA
:1003500012F5800F80F09A80BCF1004F08BF5FEA71
:10036000500C50F1000041EB045141EA050130BD51
:100370005FEA4C0C404141EB0101013C28BFB1F563
:10038000801FE9D291F0000F04BF01460020B1FAAE
:1003900081F308BF2033A3F10B03B3F120020CDA81
:1003A0000C3208DD02F1140CC2F10C0201FA0CF05F
:1003B00021FA02F10CE002F11402D8BFC2F1200CC4
:1003C00001FA02F120FA0CFCDCBF41EA0C0190407A
:1003D000E41AA2BF01EB0451294330BD6FEA0404C3
:1003E0001F3C1CDA0C340EDC04F11404C4F12002AE
:1003F00020FA04F001FA02F340EA030021FA04F3C0
:1004000045EA030130BDC4F10C04C4F1200220FA16
:1004100002F001FA04F340EA0300294630BD21FA54
:1004200004F0294630BD94F0000F83F4801306BF1A
:1004300081F480110134013D4EE77FEA645C18BF0E
:100440007FEA655C29D094EA050F08BF90EA020FA5
:1004500005D054EA000C04BF1946104630BD91EA9D
:10046000030F1EBF0021002030BD5FEA545C05D1A0
:100470004000494128BF41F0004130BD14F58004DF
:100480003CBF01F5801130BD01F0004545F0FE4153
:1004900041F470014FF0000030BD7FEA645C1ABF88
:1004A000194610467FEA655C1CBF0B46024650EABF
:1004B000013406BF52EA033591EA030F41F40021EB
:1004C00030BD00BF90F0000F04BF0021704730B571
:1004D0004FF4806404F132044FF000054FF0000146
:1004E00050E700BF90F0000F04BF0021704730B507
:1004F0004FF4806404F1320410F0004548BF4042DC
:100500004FF000013EE700BF42004FEAE2014FEA30
:1005100031014FEA02701FBF12F07F4393F07F4F0B
:1005200081F06051704732F07F4208BF704793F00E
:100530007F4F04BF41F40021704730B54FF4607421
:1005400001F0004521F000411CE700BF50EA010224
:1005500008BF704730B54FF000050AE050EA0102CD
:1005600008BF704730B511F0004502D5404261EB3D
:1005700041014FF4806404F132045FEA915C3FF47E
:10058000D8AE4FF003025FEADC0C18BF03325FEA1B
:10059000DC0C18BF033202EBDC02C2F1200300FACC
:1005A00003FC20FA02F001FA03FE40EA0E0021FAF1
:1005B00002F11444BDE600BF70B54FF0FF0C4CF4DF
:1005C000E06C1CEA11541DBF1CEA135594EA0C0F91
:1005D00095EA0C0F00F0DEF82C4481EA030621EACC
:1005E0004C5123EA4C5350EA013518BF52EA033507
:1005F00041F4801143F4801338D0A0FB02CE4FF0B9
:100600000005E1FB02E506F00042E0FB03E54FF0E8
:100610000006E1FB03569CF0000F18BF4EF0010EE0
:10062000A4F1FF04B6F5007F64F5407404D25FEADC
:100630004E0E6D4146EB060642EAC62141EA55518F
:100640004FEAC52040EA5E504FEACE2EB4F1FD0CD1
:1006500088BFBCF5E06F1ED8BEF1004F08BF5FEA4F
:10066000500E50F1000041EB045170BD06F0004601
:1006700046EA010140EA020081EA0301B4EB5C04AE
:10068000C2BFD4EB0C0541EA045170BD41F48011A6
:100690004FF0000E013C00F3AB8014F1360FDEBFCB
:1006A000002001F0004170BDC4F10004203C35DAA7
:1006B0000C341BDC04F11404C4F1200500FA05F32A
:1006C00020FA04F001FA05F240EA020001F00042CB
:1006D00021F0004110EBD37021FA04F642EB060141
:1006E0005EEA430E08BF20EAD37070BDC4F10C046B
:1006F000C4F1200500FA04F320FA05F001FA04F22F
:1007000040EA020001F0004110EBD37041F100011A
:100710005EEA430E08BF20EAD37070BDC4F1200525
:1007200000FA05F24EEA020E20FA04F301FA05F28D
:1007300043EA020321FA04F001F0004121FA04F235
:1007400020EA020000EBD3705EEA430E08BF20EA05
:10075000D37070BD94F0000F0FD101F0004640003F
:1007600041EB010111F4801F08BF013CF7D041EAC1
:10077000060195F0000F18BF704703F000465200C5
:1007800043EB030313F4801F08BF013DF7D043EA96
:100790000603704794EA0C0F0CEA135518BF95EA4C
:1007A0000C0F0CD050EA410618BF52EA4306D1D1D3
:1007B00081EA030101F000414FF0000070BD50EAF2
:1007C000410606BF1046194652EA430619D094EA7C
:1007D0000C0F02D150EA013613D195EA0C0F05D166
:1007E00052EA03361CBF104619460AD181EA0301BA
:1007F00001F0004141F0FE4141F470014FF0000072
:1008000070BD41F0FE4141F4780170BD70B54FF00C
:10081000FF0C4CF4E06C1CEA11541DBF1CEA13558C
:1008200094EA0C0F95EA0C0F00F0A7F8A4EB05046E
:1008300081EA030E52EA03354FEA013100F0888065
:100840004FEA03334FF0805545EA131343EA12632E
:100850004FEA022245EA111545EA10654FEA0026E3
:100860000EF000419D4208BF964244F1FD0404F59C
:10087000407402D25B084FEA3202B61A65EB0305F8
:100880005B084FEA32024FF480104FF4002CB6EBB5
:10089000020E75EB030E22BFB61A754640EA0C0035
:1008A0005B084FEA3202B6EB020E75EB030E22BF75
:1008B000B61A754640EA5C005B084FEA3202B6EBB6
:1008C000020E75EB030E22BFB61A754640EA9C0075
:1008D0005B084FEA3202B6EB020E75EB030E22BF45
:1008E000B61A754640EADC0055EA060E18D04FEA03
:1008F000051545EA16754FEA06164FEAC30343EAA3
:1009000052734FEAC2025FEA1C1CC0D111F4801F6F
:100910000BD141EA00014FF000004FF0004CB6E768
:1009200011F4801F04BF01430020B4F1FD0C88BF07
:10093000BCF5E06F3FF6AFAEB5EB030C04BFB6EB12
:10094000020C5FEA500C50F1000041EB045170BD05
:100950000EF0004E4EEA113114EB5C04C2BFD4EB32
:100960000C0541EA045170BD41F480114FF0000EB6
:10097000013C90E645EA060E8DE60CEA135594EA32
:100980000C0F08BF95EA0C0F3FF43BAF94EA0C0F35
:100990000AD150EA01347FF434AF95EA0C0F7FF4AA
:1009A00025AF104619462CE795EA0C0F06D152EAFE
:1009B00003353FF4FDAE1046194622E750EA4106E2
:1009C00018BF52EA43067FF4C5AE50EA41047FF4F3
:1009D0000DAF52EA43057FF4EBAE12E74FF0FF3C58
:1009E00006E000BF4FF0010C02E000BF4FF0010C29
:1009F0004DF804CD4FEA410C7FEA6C5C4FEA430CA2
:100A000018BF7FEA6C5C1BD001B050EA410C0CBFF0
:100A100052EA430C91EA030F02BF90EA020F002052
:100A2000704710F1000F91EA030F58BF994208BFB9
:100A300090422CBFD8176FEAE37040F00100704776
:100A40004FEA410C7FEA6C5C02D150EA013C07D1CD
:100A50004FEA430C7FEA6C5CD6D152EA033CD3D018
:100A60005DF8040B704700BF8446104662468C4612
:100A70001946634600E000BF01B5FFF7B7FF002845
:100A800048BF10F1000F01BD4DF808EDFFF7F4FF6E
:100A90000CBF012000205DF808FB00BF4DF808EDF9
:100AA000FFF7EAFF34BF012000205DF808FB00BF1C
:100AB0004DF808EDFFF7E0FF94BF012000205DF83E
:100AC00008FB00BF4DF808EDFFF7CEFF94BF0120F3
:100AD00000205DF808FB00BF4DF808EDFFF7C4FFEC
:100AE00034BF012000205DF808FB00BF4FEA410C35
:100AF0007FEA6C5C02D150EA013C0AD14FEA430C18
:100B00007FEA6C5C02D152EA033C02D14FF0000054
:100B100070474FF0010070474FEA410212F5001292
:100B200015D211D56FF47873B3EB625212D94FEA34
:100B3000C12343F0004343EA505311F0004F23FA1E
:100B400002F018BF404270474FF00000704750EA73
:100B5000013005D111F0004008BF6FF00040704730
:100B60004FF00000704700BF4A0011D212F500128A
:100B700011D20DD56FF47873B3EB62520ED44FEAF5
:100B8000C12343F0004343EA505323FA02F0704775
:100B90004FF00000704750EA013002D14FF0FF30B3
:100BA00070474FF0000070474FEA4102B2F1E04356
:100BB00024BFB3F5001CDCF1FE5C0DD901F0004C44
:100BC0004FEAC0024CEA5070B2F1004F40EB830094
:100BD00008BF20F00100704711F0804F21D113F1C0
:100BE0003872BCBF01F00040704741F480114FEAF9
:100BF0005252C2F11802C2F1200C10FA0CF320FA82
:100C000002F018BF40F001004FEAC1234FEAD3239E
:100C100003FA0CFC40EA0C0023FA02F34FEA430308
:100C2000CCE77FEA625307D150EA01331EBF4FF091
:100C3000FE4040F44000704701F0004040F0FE40AC
:100C400040F40000704700BF80F0004002E000BFA9
:100C500081F0004142001FBF5FEA410392EA030FA7
:100C60007FEA226C7FEA236C6AD04FEA1262D2EBF1
:100C70001363C1BFD218414048404140B8BF5B42F6
:100C8000192B88BF704710F0004F40F4000020F08F
:100C90007F4018BF404211F0004F41F4000121F0A5
:100CA0007F4118BF494292EA030F3FD0A2F10102EF
:100CB00041FA03FC10EB0C00C3F1200301FA03F12D
:100CC00000F0004302D5494260EB4000B0F5000F50
:100CD00013D3B0F1807F06D340084FEA310102F10F
:100CE0000102FE2A51D2B1F1004F40EBC25008BFC1
:100CF00020F0010040EA03007047490040EB00008B
:100D0000013A28BFB0F5000FEDD2B0FA80FCACF18B
:100D1000080CB2EB0C0200FA0CF0AABF00EBC250B8
:100D200052421843BCBFD0401843704792F0000FA6
:100D300081F4000106BF80F400000132013BB5E7F9
:100D40004FEA41037FEA226C18BF7FEA236C21D06F
:100D500092EA030F04D092F0000F08BF08467047D4
:100D600090EA010F1CBF0020704712F07F4F04D1A2
:100D7000400028BF40F00040704712F100723CBFB5
:100D800000F50000704700F0004343F0FE4040F4DF
:100D9000000070477FEA226216BF08467FEA23639D
:100DA0000146420206BF5FEA412390EA010F40F488
:100DB000800070474FF0000304E000BF10F00043D4
:100DC00048BF40425FEA000C08BF704743F09643BB
:100DD00001464FF000001CE050EA010208BF7047D6
:100DE0004FF000030AE000BF50EA010208BF70475D
:100DF00011F0004302D5404261EB41015FEA010C72
:100E000002BF84460146002043F0B64308BFA3F169
:100E10008053A3F50003BCFA8CF2083AA3EBC2534B
:100E200010DB01FA02FC634400FA02FCC2F120026A
:100E3000BCF1004F20FA02F243EB020008BF20F0A1
:100E40000100704702F1200201FA02FCC2F1200207
:100E500050EA4C0021FA02F243EB020008BF20EAFC
:100E6000DC7070474FF0FF0C1CEAD0521EBF1CEA2A
:100E7000D15392EA0C0F93EA0C0F6FD01A4480EA18
:100E8000010C400218BF5FEA41211ED04FF0006301
:100E900043EA501043EA5111A0FB01310CF000402D
:100EA000B1F5000F3EBF490041EAD3715B0040EA53
:100EB000010062F17F02FD2A1DD8B3F1004F40EB23
:100EC000C25008BF20F00100704790F0000F0CF0F6
:100ED000004C08BF49024CEA502040EA51207F3ABA
:100EE000C2BFD2F1FF0340EAC250704740F4000095
:100EF0004FF00003013A5DDC12F1190FDCBF00F086
:100F000000407047C2F10002410021FA02F1C2F133
:100F1000200200FA02FC5FEA310040F1000053EACF
:100F20004C0308BF20EADC70704792F0000F00F01D
:100F3000004C02BF400010F4000F013AF9D040EA23
:100F40000C0093F0000F01F0004C02BF490011F4B7
:100F5000000F013BF9D041EA0C018FE70CEAD153B5
:100F600092EA0C0F18BF93EA0C0F0AD030F0004C35
:100F700018BF31F0004CD8D180EA010000F00040E9
:100F8000704790F0000F17BF90F0004F084691F0A7
:100F9000000F91F0004F14D092EA0C0F01D14202E1
:100FA0000FD193EA0C0F03D14B0218BF084608D1AA
:100FB00080EA010000F0004040F0FE4040F40000F4
:100FC000704740F0FE4040F4400070474FF0FF0C87
:100FD0001CEAD0521EBF1CEAD15392EA0C0F93EACE
:100FE0000C0F69D0A2EB030280EA010C49024FEA20
:100FF000402037D04FF0805343EA111143EA1013D9
:101000000CF000408B4238BF5B0042F17D024FF490
:10101000000C8B4224BF5B1A40EA0C00B3EB510F6B
:1010200024BFA3EB510340EA5C00B3EB910F24BF54
:10103000A3EB910340EA9C00B3EBD10F24BFA3EBD9
:10104000D10340EADC001B0118BF5FEA1C1CE0D1A1
:10105000FD2A3FF650AF8B4240EBC25008BF20F054
:10106000010070470CF0004C4CEA50207F32C2BFA8
:10107000D2F1FF0340EAC250704740F400004FF045
:101080000003013A37E792F0000F00F0004C02BF76
:10109000400010F4000F013AF9D040EA0C0093F040
:1010A000000F01F0004C02BF490011F4000F013B9A
:1010B000F9D041EA0C0195E70CEAD15392EA0C0F02
:1010C00008D142027FF47DAF93EA0C0F7FF470AF3A
:1010D000084676E793EA0C0F04D14B023FF44CAF7D
:1010E00008466EE730F0004C18BF31F0004CCAD112
:1010F00030F000427FF45CAF31F000437FF43CAF4E
:101100005FE700BF4FF0FF3C06E000BF4FF0010C6F
:1011100002E000BF4FF0010C4DF804CD4FEA400251
:101120004FEA41037FEA226C18BF7FEA236C11D09B
:1011300001B052EA530C18BF90EA010F58BFB2EB4E
:10114000030088BFC81738BF6FEAE17018BF40F0CE
:10115000010070477FEA226C02D15FEA402C05D182
:101160007FEA236CE4D15FEA412CE1D05DF8040B07
:10117000704700BF844608466146FFE70FB5FFF79A
:10118000C9FF002848BF10F1000F0FBD4DF808ED52
:10119000FFF7F4FF0CBF012000205DF808FB00BF43
:1011A0004DF808EDFFF7EAFF34BF012000205DF89D
:1011B00008FB00BF4DF808EDFFF7E0FF94BF0120EA
:1011C00000205DF808FB00BF4DF808EDFFF7D2FFE7
:1011D00094BF012000205DF808FB00BF4DF808ED2A
:1011E000FFF7C8FF34BF012000205DF808FB00BFF7
:1011F00038B50C4605462146284600220023FFF755
:101200004DFC28B928462146BDE8384000F00AB810
:10121000284604F1004100F005F8404261EB41012D
:1012200038BD00BFD0B500220B4B06460F46FFF776
:10123000C3F9FFF799FC0446FFF744F90022074B76
:10124000FFF7BAF902460B4630463946FEF7FCFF77
:10125000FFF78AFC2146D0BD0000F03D0000F041C0
:1012600008B5054C20464FF4806101F0FEFD41F2C7
:10127000883003F0F3FBF5E7001801407FB5104B11
:10128000002118689A889B790190ADF808200DF12B
:101290000B000D228DF80A3005F018FB094C214691
:1012A00001A805F09BFF0A2101AA084605F02AFAC9
:1012B00005F08EF94FF47A7003F0D0FBEFE700BF32
:1012C000C8C20008B024002008B50C21044803F06F
:1012D00045F8044B044A1B68D25C044B1A70FEE7C5
:1012E0006424002004020020B02400206024002098
:1012F0002DE9F04FA24DA34C95B03C21284602F0B9
:101300003CFD3C21204602F038FD2B68AB465A6A72
:101310009D4BDFF880A21A6023685A6A9B4B1A60C3
:1013200001F078FB044601F075FB001BB0F57A7FF5
:10133000F9D9DBF8003095495A6A934B1A60914B02
:101340001B685B6A002B40F013810B600FA890496B
:1013500005F024FF14210A200FAA05F0D3F90DF19E
:101360002E030BAA0DF12A01504604F0F0FF0DAB3D
:101370000DF132020CA9504604F0C6FF0DF13A03FC
:101380000EAA0DF13601504605F057F8BDF93600AA
:10139000FFF7A8F878A3D3E90023FFF70DF9CDE90B
:1013A0000401BDF93800FFF79DF873A3D3E90023CA
:1013B000FFF702F9CDE90001BDF93A00FFF792F815
:1013C0006DA3D3E90023FFF7F7F8CDE90601BDF9D6
:1013D0002A000028BCBF00F57F503F308013FFF784
:1013E00081F80546BDF92C000C460028BCBF00F56D
:1013F0007F503F308013FFF775F88046BDF92E000F
:1014000089460028BCBF00F57F503F308013FFF7AE
:1014100069F8DDE9042306460F46DDE9000109F01D
:101420004FFC32463B4630463946FFF7C5F8064684
:101430000F462A46234628462146FFF7BDF8324686
:101440003B46FEF703FF09F03DFC02460B464046D3
:10145000494609F035FC42464B46CDE90801404675
:101460004946FFF7A9F832463B46FEF7EFFE09F082
:1014700029FC02460B46284604F1004109F020FCF5
:10148000FFF792FBFFF740F804460D4609F090FB8A
:10149000CDE902012046294609F0CCFB8046894669
:1014A000DDE90801FFF780FBFFF72EF804460D4643
:1014B00009F07EFBCDE908012046294609F0BAFB78
:1014C000DDE9002304460D4640464946FFF774F81F
:1014D00022462B46FFF770F8DDE9042306460F4647
:1014E000DDE90801FFF768F802460B463046394649
:1014F000FEF7ACFEDDE9062306460F46DDE90201F4
:10150000FFF75AF822462B46FFF756F802460B46DD
:1015100030463946FEF79AFEFFF746FBFEF7F4FF2A
:10152000DDE9002304460D46DDE90201FFF744F83A
:10153000DDE9062306460F4640464946FFF73CF8DC
:1015400002460B4630463946FEF77EFEFFF72CFB7F
:10155000FEF7DAFF22462B4609F0B2FBDBF800303B
:101560001B68084B1B681B6801F054FA0446DAE656
:10157000C3F57F43FF33E8E6333333333333E33F9D
:10158000BC2400200C240020542400201C23002014
:10159000DCC20008B023002010B590B01822002152
:1015A00007A805F093F90021142201A805F08EF98F
:1015B000012210230224CDE90A23002306A8CDE945
:1015C0000E3306940D9402F0B7F8014608B172B6D6
:1015D000FEE70F23CDE90300059001A8CDE9013412
:1015E00002F080FA08B172B6FEE710B010BD00003C
:1015F00080B59AB001F0F0F9FFF7CEFF102200217C
:1016000011A805F063F9A24B4FF4BC619A69A14897
:1016100042F040029A619A69012602F0400200926B
:10162000009A9A69002542F004029A619A69032798
:1016300002F004020192019A9A69974C42F010025A
:101640009A619A6902F010020292029A9A6942F033
:1016500008029A619B69002203F008030393039B2D
:1016600001F0FEFB00223C218C4801F0F9FB4FF415
:10167000BC63CDE911360223864811A9CDE9135385
:1016800001F004FB3C23854811A9CDE911361395DF
:10169000149701F0FBFA1022294606A805F016F966
:1016A0001C2229460AA8CDE9045505F00FF920228D
:1016B000294611A805F00AF9794B2046C4E90035FE
:1016C00041F61F43C4E90555C4E90335A56002F09E
:1016D000FBFB08B172B6FEE74FF48053204606A923
:1016E000069302F03AFD08B172B6FEE7204602F01A
:1016F00017FC08B172B6FEE7CDE9040004A9204644
:1017000002F02EFE024608B172B6FEE76023CDE974
:101710000C00CDE90A30CDE90E0010900AA9204650
:1017200002F0B6FC08B172B6FEE7042220460AA910
:1017300002F0AEFC08B172B6FEE74FF40053CDE9FB
:101740001100CDE913001590189011A920461693A9
:1017500002F03CFE08B172B6FEE74FF08043514CF8
:10176000CDE90A00C4E900304FF6FF73C4E9033045
:101770000A23CDE91170CDE91360CDE91530CDE92B
:101780001760A060A061199011A9204602F0F4FB37
:1017900008B172B6FEE7CDE90A000AA9204602F0B8
:1017A000DFFD044608B172B6FEE70146102206A826
:1017B00005F08CF81C2221460AA8CDE9044405F066
:1017C00085F82022214611A805F080F8A02336488C
:1017D000364D8460C0E900534FF47A73C0E9033496
:1017E00080234461836102F06FFB08B172B6FEE7AB
:1017F0004FF480532C4806A9069302F0AEFC08B1C2
:1018000072B6FEE7284802F08BFB08B172B6FEE71D
:10181000CDE9040004A9244802F0A2FD08B172B683
:10182000FEE76023CDE90E00CDE90A300C90109060
:101830000C221D480AA902F02BFC08B172B6FEE783
:101840004FF40053CDE91100CDE913001590189025
:1018500011A91548169302F0B9FD044608B172B6F5
:10186000FEE7114800F080FF4FF4E133104D1149BD
:101870002846C5E900130C23C5E90244C5E905342F
:101880002C61EC6102F040FEB0B172B6FEE700BF21
:1018900000100240001801402423002000080140ED
:1018A00000340140BC24002064240020002C0140AE
:1018B0006C23002000480040374C384B0A27C4E90D
:1018C00000304FF6FF73C4E903300323CDE9113034
:1018D0000123CDE90A00CDE91330CDE91570CDE93A
:1018E0001730A060A061199011A9204602F044FBB6
:1018F00008B172B6FEE7CDE90A000AA9204602F057
:101900002FFD08B172B6FEE7254C264A264BC4E9E6
:101910000200C4E900234FF48043C4E90600C4E98F
:1019200004302062204601F085FC064608B172B6FC
:10193000FEE704F007FF204604F0BFFD3A461B49CE
:10194000284602F0DAFF02F0F1FF3146184A194842
:1019500003F028F8184B31461860184A184803F06D
:1019600021F8184B31461860174A184803F01AF846
:10197000174B31461860174A174803F013F8174BF6
:1019800031461860164A174803F00CF8164B1860D9
:1019900002F0E8FFFEE700BF0C2400200004004036
:1019A000B023002000540040801A0600B02400201C
:1019B00088C300086112000820230020ACC300087F
:1019C0007D1200080424002040C30008051D000803
:1019D000AC2400201CC30008F112000808240020D9
:1019E00064C30008C9120008582400200A2208B560
:1019F0000349044802F081FF0022034B1A6008BD2E
:101A0000B02400206C230020040200200A44014678
:101A100030B5C5186C1A002C05DC002223EAE373EC
:101A2000C254184430BD12F8014B01F8014BF1E7E4
:101A30002DE9F04F4FF0000A4FF0000BADB00E460D
:101A400069491C461746CDE90CABCDE90EABFFF753
:101A5000BDFA6649FFF706FA5FA3D3E90023012523
:101A60004FF00008CDE904235DA3D3E900230B90D8
:101A7000CDE900230EA943460CAA10A8CDE90658CB
:101A8000CDE902AB00F000FD294610A800F013FCE0
:101A90000A2110A800F02CFD0022554B10A8CDE91A
:101AA00000230022534B00F013FCAC422FD12246FE
:101AB0000421514801F0D4F9424608214E4801F072
:101AC000CFF9224620214C4801F0CAF942461021A4
:101AD000494801F0C5F90025DFF824A1DFF824B159
:101AE000DAF800305D62DBF800305D6200F092FFF2
:101AF00081462846FFF762F90B99FFF751FBC8B9F9
:101B00003E4B1B68586398632DB0BDE8F08F002CE6
:101B1000E1D122460421384801F0A2F92A460821E1
:101B2000354801F09DF922462021334801F098F90B
:101B30002A46CCE700F06EFFA0EB09003228D8D986
:101B4000DAF80030012CD3F82480DBF80030D3F829
:101B5000249036D1B9F1000F03D0C9F57F4909F1BE
:101B6000FF09A8EB0900FEF7BDFCCDE90E0110A8A6
:101B700000F003FBDDE90C233046CDE90823FEF736
:101B8000B1FCDDE90823FEF761FBFEF7EDFF86B24D
:101B90003846FEF7A7FCDDE90823FEF755FBFEF704
:101BA000E3FF164B87B21B68012C5E639F6303D073
:101BB000002C14BFA846C84600F02CFF45468146BD
:101BC00097E7002CD3D1B8F1000FCAD0C8F57F48F1
:101BD00008F1FF08C5E700BF666666666666F63F01
:101BE0000000000000C062404899A1410000A544E7
:101BF00000007940000079C0000801402423002043
:101C0000BC2400200C2400202DE9F04700240E46BF
:101C10003649FFF7DBF93649FFF724F9DFF8D890AA
:101C2000DFF8D880D9F8003007465C62D8F8003079
:101C300064205C6202F012FF012204212D4801F0B1
:101C40000FF9224608212B4801F00AF90122202130
:101C5000284801F005F922461021264801F000F934
:101C600000F0D8FEDFF898A00546FEB940F2DC523D
:101C7000DAF800305A639A633046FFF79FF8394626
:101C8000FFF78EFA30B90022DAF800305A639A630F
:101C9000BDE8F08700F0BEFE401B6428ECD9D9F8FF
:101CA00000305E6A00F0B6FE0546E5E7012EEAD197
:101CB00040F2DC524FF6FF76DAF800305A639A634E
:101CC0002046FFF77BF83946FFF76AFA0028DAD09A
:101CD00000F0A0FE401B6428F2D9D8F800305C6AFE
:101CE00000F098FE341B0546EAE700BF4899A14181
:101CF0000040A14400080140BC2400200C24002026
:101D0000242300202DE9F04FB54CB64D2368B64E84
:101D1000EB5C89B03370B54B002118681B790390D8
:101D2000B3488DF8103002F019FB0421B04802F0DE
:101D300015FBCDE90065DFF8DCA2AE4F226800207C
:101D40001346AD4D02F10A0E2968019E16F803C034
:101D5000BCF17C0F08BF194603F1010308BF012045
:101D60009E45F2D100B129602B689A42E6DA0199CA
:101D70000098895C9B1A013B01700132994905A8C2
:101D8000FFF744FE05A804F065FDFEF70DFF009B7C
:101D90001B78613B172BD1D801A252F823F000BF6A
:101DA000E11E0008851E000809210008192000080E
:101DB0003D1D00083F1E00083D1D00083D1D000898
:101DC0003D1D00083D1D00083D1D000801210008C3
:101DD0003D1D00083D1D00083D1D00083D1D00087B
:101DE0003D1D0008F5200008811E00083D1D00086B
:101DF0003D1D00083D1D0008011E0008C71E00080B
:101E0000012340F6B8321146FFF712FE51222B682B
:101E10007A4D013323602B684FF4FA701A6402F094
:101E20001DFE46222B6864201A6402F017FE4FF64E
:101E3000FF73052203A9724802F094FB7EE701229A
:101E40000421704801F00CF8002208216D4801F0CF
:101E500007F8012220216B4801F002F8002210212E
:101E6000684800F0FDFF4FF47A72614B0A201B684E
:101E70005A639A632B680133236002F0EFFD5DE73C
:101E80000023BEE7002204215E4800F0E9FF0122A2
:101E900008215C4800F0E4FF00222021594800F0AE
:101EA000DFFF01225748102100F0DAFF4FF47A7269
:101EB0004F4B0A201B685A639A6302F0CFFD2B68D0
:101EC000013323603AE70022494B03A91B684C48C1
:101ED0005A639A634FF6FF73052202F043FBEEE765
:101EE0004FF4FA624FF0390B4FF051094FF04608AA
:101EF000424E114601235046FFF79AFD33680A20EF
:101F0000C3F840B002F0AAFD00213846FFF77CFE7E
:101F100033684FF4FA70C3F8409002F09FFD3368C5
:101F20006420C3F8408002F099FD4FF4FA62002368
:101F300011463846FFF77CFD642002F08FFD3368C0
:101F40000A20C3F840B002F089FD00212E48FFF7B7
:101F50005BFE33684FF4FA70C3F8409002F07EFDE8
:101F600033686420C3F8408002F078FD4FF4FA62D1
:101F7000002311462548FFF75BFD642002F06EFD4B
:101F800033680A20C3F840B002F068FD0021204801
:101F9000FFF73AFE33684FF4FA70C3F8409002F04E
:101FA0005DFD33686420C3F8408002F057FD4FF4B4
:101FB000FA62002311465046FFF73AFD33684FF4AA
:101FC000FA70C3F8409002F049FD64203368C3F80A
:101FD000408002F043FD2B680133236027E700BFF8
:101FE00004020020B024002060240020E6C2000883
:101FF0002423002000006041080200206424002007
:102000006C2300200008014000007041000098414E
:102010000000D041000010414FF4FA624FF0580B1D
:102020004FF051094FF046083D4E114601235046EE
:10203000FFF7FEFC33680A20C3F840B002F00EFD43
:1020400001213846FFF7E0FD33684FF4FA70C3F81A
:10205000409002F003FD33686420C3F8408002F032
:10206000FDFC4FF4FA62002311463846FFF7E0FC0E
:10207000642002F0F3FC33680A20C3F840B002F099
:10208000EDFC01212748FFF7BFFD33684FF4FA70DC
:10209000C3F8409002F0E2FC33686420C3F840804B
:1020A00002F0DCFC4FF4FA62002311464FF083404B
:1020B000FFF7BEFC642002F0D1FC33680A20C3F8AD
:1020C00040B002F0CBFC01211748FFF79DFD3368BB
:1020D0004FF4FA70C3F8409002F0C0FC33686420FB
:1020E000C3F8408002F0BAFC4FF4FA6200231146B4
:1020F0000E4861E758220A4B1B680A201A6468E7F9
:10210000074B39221B68F8E75122054E4FF4FA704D
:1021100033681A6402F0A2FC46223368EDE700BF80
:10212000642400200000704100008C410000C04089
:10213000436C2DE9D043D3E90067D0E91A89C0E99F
:102140001467036C0446D3E900233946C0E916231B
:1021500042464B463046FEF7BFFC10B1C4E9148935
:1021600009E0D4E91889304642464B463946FEF725
:1021700095FC0028F2D1BDE8D0832DE9F04F4378DB
:10218000044689B01BB9002009B0BDE8F08F00F00B
:1021900041FC6368A268C31A9A420546F3D8236CCF
:1021A000A16CD3E900ABD1E9000152465B46FEF7D2
:1021B0004BF8D4E91623CDE9040150465946FEF701
:1021C00043F8D4E90C23CDE90601DDE90401FEF76B
:1021D000F3F9D4E91423FEF739F806460F462378BD
:1021E000C4E9146701936BB9D4E90A23DDE9060158
:1021F000FEF7E2F902460B4630463946FEF724F870
:10220000C4E91401D4E91489D4E91A674046324676
:102210003B464946FEF760FC002838D0C4E9146705
:10222000019B002B42D0D4E90A23DDE90401FEF72B
:10223000C3F980468946D4E90E23DDE90601FEF79D
:10224000BBF902460B46D4E91401FDF7FDFF4246F7
:102250004B46FDF7FBFF8046894602460B4630465B
:102260003946FEF71BFC50B9D4E9186742464B4685
:1022700030463946FEF730FC08B946464F46636C97
:102280000120C3E90067C4E916AB65607CE7D4E9C7
:10229000182340464946CDE90223FEF7FFFB0028FC
:1022A000BED0DDE90223C4E91423B9E74FF00008EA
:1022B0004FF00009BFE7012938B504460CBF0125DE
:1022C000002503D143780BB9FFF732FF657038BDA5
:1022D0002DE9F84FDDE90A6714461D46824632466D
:1022E0003B4620462946FEF7EDFB002837D19AF8F9
:1022F0000130CAE91845CAE91A67002B2FD0DAF86D
:1023000044B03046DBE90089394642464B46FEF789
:10231000C5FB78B1CBE90067DAE91467DAE91A4559
:10232000304622462B463946FEF7D6FB68B1CAE94D
:10233000144514E042464B4620462946FEF7CCFBA6
:102340000028E9D0CBE90045E6E7DAE91845304650
:1023500022462B463946FEF7A1FB0028E7D1BDE80F
:10236000F88F00002DE9F047DDE9088914461D4685
:10237000824600220023204629469DF83060FEF761
:102380008DFB00285AD10022002340464946FEF723
:1023900085FB002852D1DDE90A0100220023FEF767
:1023A0007DFB00284AD1731E8AF802605E425E41BE
:1023B000CAE90689DDE90A238AF80060CAE9082328
:1023C000CAE90445DAF80800FEF77CF800221C4B45
:1023D000FEF71CFACAE90A4506460F4602460B46B6
:1023E00040464946FEF7E8F880468946DDE90A019D
:1023F0003B463246CAE90C89FEF708FA06460F4604
:102400009AF80330CAE90E67012B17D122462B46F2
:1024100000200021FDF718FF4246CAE90A014B4699
:1024200000200021FDF710FF3246CAE90C013B46AF
:1024300000200021FDF708FFCAE90E01BDE8F08782
:1024400000408F4038B5437804460D46D3B1C37879
:102450008B4217D0D0E90A2300210020FDF7F4FEBB
:10246000D4E90C23C4E90A0100200021FDF7ECFEA9
:10247000D4E90E23C4E90C0100200021FDF7E4FE9D
:10248000C4E90E01E57038BD10B583640023C0E9CE
:102490001012437000220023C0E9182312A3D3E9CD
:1024A0000023C0E91A236423044686B09DF83C103B
:1024B0008360FFF7C7FF9DF8383020460493DDE9BD
:1024C0000C23CDE90223DDE90A23CDE90023DDE970
:1024D0000823FFF747FF00F09DFAA368C01A606069
:1024E00006B010BDAFF300800000000000E06F40B8
:1024F000F8B50D1E044620DD2846FDF7F3FF06461D
:10250000A0680F46FDF7DEFF02460B46304639460F
:10251000FEF77CF902460B4606460F46D4E90C014D
:10252000FEF74AF83246C4E90C01D4E90E013B46F5
:10253000FEF76CF9C4E90E01A560F8BD114B07B5B3
:102540009A690F2142F001029A619A696FF00100C5
:1025500002F001020092009ADA6942F08052DA61D8
:10256000DB69002203F080530193019B00F07CFAA9
:10257000054A536823F0E06343F08063536003B07F
:102580005DF804FB001002400000014010B5044655
:1025900086B01022002102A804F098F92268154B99
:1025A0009A4224D1144C4FF44072A369134843F06B
:1025B0000803A361A36902A903F008030093009B29
:1025C0001223CDE902230323059300F05FFB0C4A9D
:1025D000536843F0E06343F002035360E36943F45C
:1025E0000013E361E36903F400130193019B06B058
:1025F00010BD00BF0054004000100240000C01401C
:1026000000000140102210B5044688B00DEB020016
:10261000002104F05BF92368174A93420BD1174B52
:102620009A6942F400629A619B6903F40063019322
:10263000019B08B010BD124A9342FAD10F4B1148CA
:102640009A6904A942F400529A619A6902F400520C
:102650000292029A9A6942F010029A619B69C02222
:1026600003F010030393039B0223CDE90423079394
:1026700000F00CFBDDE700BF002C01400010024021
:10268000003401400010014010B504468AB0102209
:10269000002106A804F01AF92368B3F1804F39D15C
:1026A00003F50433DA69002442F00102DA61DA69E1
:1026B000284802F001020192019A9A6906A942F0A3
:1026C00004029A619A6902F004020292029A9A69DB
:1026D00042F008029A619B69089403F0080303938F
:1026E000039B4FF40043CDE9063400F0CFFA0823F2
:1026F000194806A9CDE90634089400F0C7FA174A2C
:10270000536823F4407343F0E06343F480735360F1
:102710000AB010BD124A9342FAD1124B0D48DA6941
:1027200006A942F00202DA61DA6902F002020492BA
:10273000049A9A6942F004029A619B69C02203F0EC
:1027400004030593059B0023CDE90623089300F0BD
:102750009DFADDE700080140000C01400000014047
:10276000000400400010024010B5044686B010225C
:10277000002102A804F0AAF82268104B9A421BD14B
:1027800003F564439A690E4842F040029A619B69DE
:102790004FF4804203F040030193019B022302A9FE
:1027A000CDE90223059300F071FA064A536843F01D
:1027B000E06343F0C003536006B010BD002C01403D
:1027C000001801400000014010B5044686B01022F8
:1027D000002102A804F07AF822681F4B9A4239D1EE
:1027E00003F5E433DA691D4842F48022DA61DA69DC
:1027F00002A902F480220092009A9A69002442F011
:1028000010029A619B694FF4806203F010030193F8
:10281000019B0223CDE902230323059300F036FA3E
:102820004FF400630D4802A9CDE90234049400F08E
:102830002DFA0B4A27205368052123F0300343F07B
:10284000E06343F010035360224600F00DF92720A7
:1028500000F03CF906B010BD0048004000100140F7
:1028600000000140FEE7FEE7FEE7FEE7FEE77047F7
:1028700008B500F0C3F803F0AFF8012803D0BDE8B5
:10288000084003F097BB08BD014801F01DBF00BF21
:102890006C2300200120704708B503F0DFFF1623EA
:1028A00003604FF0FF3008BD08B503F0D7FF1623D3
:1028B0000360FEE770B50E4614460025A54201DB15
:1028C000204670BDAFF3008070550135F6E770B556
:1028D0000E4614460025A54201DB204670BD705D02
:1028E000AFF300800135F6E74FF0FF3070474FF44B
:1028F000005300204B607047012070470020704754
:102900000B4B0246196810B509B90A4919601868D5
:1029100009490A4C0244091B8A4206D903F09EFF6A
:102920000C2303604FF0FF3010BD1A60FCE700BFBE
:102930000C020020582900200000012000040000A3
:10294000704700000C480D490D4A002302E0D4589E
:10295000C4500433C4188C42F9D30A4A0A4C0023E9
:1029600001E013600432A242FBD3FFF7E9FF03F05A
:102970007BFFFEF73DFE704700000020E8010020CD
:1029800070D50008E801002058290020FEE700006B
:1029900038B50E4B054618784FF47A73B3FBF0F355
:1029A0000B4A1068B0FBF3F000F09EF8044658B9EB
:1029B0000F2D09D8024629464FF0FF3000F054F899
:1029C0002046044B1D6038BD0120FCE704000020B8
:1029D0000000002008000020074A08B51368032003
:1029E00043F01003136000F02DF80F20FFF7D0FF25
:1029F000FFF7A4FD002008BD00200240034A044B5D
:102A000011681B780B441360704700BF0425002039
:102A100004000020014B1868704700BF0425002007
:102A200038B50446FFF7F6FF0546631C1EBF044B8E
:102A30001B78E418FFF7EEFF431BA342FAD338BD1F
:102A40000400002007490302CA6803F4E06322F48B
:102A5000E0621204120C134343F0BF6343F40033EB
:102A6000CB60704700ED00E0164B30B5DC68C4F376
:102A70000224C4F10703251D042B28BF0423062DBF
:102A80004FF0FF3598BF002405FA03F388BF033CDD
:102A900021EA0303A34005FA04F422EA0402002811
:102AA00043EA0203ACBF00F16040074A4FEA031358
:102AB000DBB2ABBF00F5614000F00F0080F80033DF
:102AC000135430BD00ED00E014ED00E0002808DBF9
:102AD0000123420900F01F0003FA00F0014B43F804
:102AE0002200704700E100E00138B0F1807F0AD297
:102AF000F021064B064A586082F823100020072276
:102B000098601A6070470120704700BF10E000E035
:102B100000ED00E090F82130022B06D004238363FF
:102B2000002380F820300120704703681A6822F0E3
:102B30000E021A601A6822F001021A600123D0E91D
:102B40000F218B4053604FF4807303840020704743
:102B500008B590F82130022B03D0042383630120B1
:102B600008BD036843491A6822F00E021A601A6809
:102B700022F001021A60404A934241D98B4238D078
:102B800014318B4237D014318B4236D014318B4202
:102B900023D014318B4223D014318B4223D0934263
:102BA00024D002F56272934223D01432934222D091
:102BB0001432934221D01432934214BF4FF4803325
:102BC0004FF480532D4A53604FF480730384436B5A
:102BD000002B4DD098470020C2E74FF48053F1E717
:102BE0004FF48033EEE74FF48013EBE74FF0807340
:102BF000E8E70123E6E71023E4E74FF48073E1E719
:102C00008B422ED01E498B422DD014318B422CD0BA
:102C100014318B4219D014318B4219D014318B42AC
:102C200019D093421AD0174A93421AD014329342C1
:102C300019D01432934218D01432934214BF4FF477
:102C400080334FF48053104ABDE74FF48053FAE7C6
:102C50004FF48033F7E74FF48013F4E74FF08073BD
:102C6000F1E70123EFE71023EDE74FF48073EAE784
:102C7000184675E708000240800002400004024048
:102C80001C00024008040240000002402DE9F74FFA
:102C9000002216466B4F6C4BDFF8B4C1DFF8B4E18D
:102CA0000C6834FA06F502D103B0BDE8F08F4FF09E
:102CB000010808FA06F804EA080538EA040440F0B6
:102CC00082804C68032C07D8013C022C00F28D80D6
:102CD000DFE804F09EA3A900122C00F0A18074D8B4
:102CE000112C00F09780FF2D98BF82464FF00F09FE
:102CF00088BF00F1040A4FEA8604DAF8008088BF32
:102D0000203C09FA04FB28EA0B0802FA04F448EA1A
:102D10000404CAF80040D1F804A01AF0805F52D031
:102D2000BC6926F0030844F00104BC61BC6908F1E9
:102D3000804804F00104019408F5803806F0030B84
:102D4000019C4FEA8B0BD8F8084009FA0BF924EAEA
:102D500009093E4CA0426AD004F58064A04268D0C4
:102D600004F58064A04266D004F58064A04264D07B
:102D700004F58064A04262D060450CBF052406249F
:102D800004FA0BF444EA0904C8F808401C681AF471
:102D9000803F14BF2C43AC431C605C681AF4003FB6
:102DA00014BF2C43AC435C609C681AF4801F14BFB2
:102DB0002C43AC439C60DC681AF4001F14BF25430D
:102DC00024EA0505DD6001366AE774450DD018D8A0
:102DD000DFF884904C4508D009F570294C4504D0A3
:102DE000A9F580194C457FF47EAF8A68EAB1012AC3
:102DF00008BFC0F810804FF0080218BFC0F8148058
:102E000071E7DFF858904C45EFD009F58039E9E7D4
:102E1000CA6868E7CA68043265E7CA68083262E7C8
:102E2000CA680C325FE700225DE704225BE70024FA
:102E3000A6E70124A4E70224A2E70324A0E70424D0
:102E40009EE700BF0010024000040140000801405E
:102E5000001C014000002210000012100000311080
:102E60000AB1016170470904FBE7C36801EA030284
:102E700021EA030141EA0241016170470168002231
:102E80004B6913F4806310D06FF480634B6120238F
:102E9000026380F83D3080F83E20036C80F83C20CF
:102EA00043F00403036401207047184670472DE97E
:102EB000F04104460F46164698462568686927EA99
:102EC000000080B2B8B16B695A0516D52B68202274
:102ED00043F400732B606FF480636B610023236302
:102EE00084F83D2084F83E30226C42F00402012038
:102EF000226484F83C30BDE8F081731CDED0FFF71B
:102F000089FDA0EB0800B04201D8002ED5D10023E6
:102F10002022236384F83D2084F83E30226C42F066
:102F20002002E4E770B504460D46164623685B6947
:102F30005B0701D5002070BD2046FFF79FFFA8B9B1
:102F40006A1CF3D0FFF766FD801BA84201D8002D54
:102F5000ECD100232022236384F83D2084F83E3006
:102F6000226C84F83C3042F0200222640120E2E727
:102F700070B504460D46164621684B6913F04003B0
:102F800001D0002010E04A69D2060ED56FF0100281
:102F90004A612022236384F83D2084F83E30226C6D
:102FA0000120226484F83C3070BDFFF733FD801BA4
:102FB000A84201D8002DDFD100232022236384F80A
:102FC0003D2084F83E30226C42F02002E8E72DE9F3
:102FD000F84606460F4691461D464FEA114A3368A9
:102FE000BAF1010F0CBF5C699C6927EA0404A4B222
:102FF000B4FA84F46409A14501D0002017E06A1CEA
:10300000EED0FFF707FD089BC01AA84201D8002D9B
:10301000E5D1002320220120336386F83D2086F885
:103020003E30326C86F83C3042F020023264BDE81B
:10303000F88670B504460D46164623685B691B0684
:1030400001D5002070BD2046FFF718FFA8B96A1C03
:10305000F3D0FFF7DFFC801BA84201D8002DECD194
:1030600000232022236384F83D2084F83E30226C24
:1030700084F83C3042F0200222640120E2E70000A4
:103080002DE9F043154602689946136885B043F46C
:1030900080731360DDE90C780E463B4600224FF04A
:1030A0000111CDF800800446FFF791FF236838B185
:1030B0001B68DB0502D54FF40073236403200AE08C
:1030C00006F0FE061E613A46434620461749FFF7C2
:1030D000EEFE18B1012005B0BDE8F083236803902F
:1030E0005A69394603929B69424603932046039BE3
:1030F000FFF79FFF40B1236C042B01BF22681368C8
:1031000043F400731360E5E7B9F1010F236802D1BE
:10311000EDB21D61DFE72A0A1A61394642462046B0
:10312000FFF787FF0028E6D12368F1E702000100DE
:103130002DE9FF479A46DDE90C78036815461A68C1
:103140000E4642F480621A601A684FF0011142F490
:1031500080721A603B460022CDF800800446FFF7DB
:1031600036FF236848B11B68DB0502D54FF40073B6
:103170002364032004B0BDE8F0875FFA86F906F007
:10318000FE061E613A46434620462949FFF78FFE58
:1031900008B10120EEE7236803905A69394603928B
:1031A0009B69424603932046039BFFF742FF40B1D1
:1031B000236C042B01BF2268136843F4007313606F
:1031C000E7E7BAF1010F23681AD1EDB2424639465A
:1031D00020461D61FFF72DFF02460028E8D1216837
:1031E00020460B6843F480730B603B464FF001119F
:1031F000CDF80080FFF7EBFE226860B11368B3E7FB
:103200002A0A1A61394642462046FFF712FF002873
:10321000CED12368D9E749F0010313612046434624
:103220003A460349FFF743FE003818BF0120A1E7E3
:103230000200010070B5044608B9012070BD90F885
:103240003D3003F0FF021BB980F83C20FFF79EF9E8
:10325000242384F83D3023681A6822F001021A60A2
:103260001A6842F400421A601A6822F400421A6096
:1032700000F0D4FC3F4A6368934294BF3E4A3F4A01
:1032800090428CBF00220122002AD6D13C4E2268F7
:10329000B0FBF6F65168013821F03F01314351602F
:1032A0003449156A8B4281BF4FF4967171434FF4D4
:1032B0007A76B1FBF6F125F03F0594BF711C013120
:1032C00029431162D1692B4D21F44F41AB4221F0CA
:1032D000FF0132D85B00B0FBF3F0431C40F6FC70FA
:1032E000034242D0C3F30B030B43D3611168D4E90B
:1032F000073021F0C00103430B4313609168D4E908
:10330000030321F40341034321F0FF010B439360C6
:10331000D168D4E9053021F0FF0103430B43D360AA
:103320001368002043F0010313602023206484F815
:103330003D30206384F83E0080E7A56855B903EB73
:103340004303B0FBF3F30133C3F30B037BB143F44B
:103350000043C9E719256B43B0FBF3F30133C3F313
:103360000B0323B143F44043BEE70423BCE701232E
:10337000BAE700BFA08601007F841E00FF083D0061
:1033800040420F002DE9F743044699460F46904608
:103390000C9EFFF73FFB94F83D300546202B03D0F1
:1033A000022003B0BDE8F0830090192301222046DB
:1033B0003A49FFF70CFE0028F2D194F83C30012B7B
:1033C000EED00123206884F83C3003684246D907D8
:1033D00058BF036839465CBF43F0010303600368CC
:1033E00023F400630360212384F83D30402384F8F4
:1033F0003E30002323640A9B20466362BDF82C30D4
:10340000CDE900656385638D2385254BE3624B46DB
:10341000FFF736FE00282AD00120C2E7FFF709FE99
:1034200040B1236C042B01BF2268136843F400737E
:103430001360F1E7636A27681A4612F8011B3961C5
:103440006262628D218D013A92B262857A69481E6C
:1034500080B2520720850AD548B15A7802333A61C2
:103460006362638D0239013B9BB221856385238DA5
:103470002A4631462046002BD0D1FFF753FD0028C5
:10348000CFD12268136843F400731360202384F8BB
:103490003C0084F83D3084F83E0082E702001000D2
:1034A0000000FFFF2DE9F04399460023044689B050
:1034B00003930D469046129FFFF7ACFA94F83D3007
:1034C0000646202B04D00225284609B0BDE8F0832B
:1034D00000901923012220468D49FFF778FD00282E
:1034E000F1D194F83C30012BEDD00123206884F811
:1034F0003C3003682946DB0758BF036842465CBF7F
:1035000043F001030360036823F400630360222394
:1035100084F83D30402384F83E3000232364109B20
:1035200020466362BDF84430CDE900766385638D43
:103530002385784BE3624B46FFF7FAFD054608B159
:103540000125C1E7228D2368C2B904905A6904920B
:103550009A690492049A1A6842F400721A60DFF8B9
:10356000B881DFF8B891238D002B37D1202284F861
:103570003C3084F83D2084F83E30A5E7012A11D183
:103580001A6822F480621A6072B6236805905A693C
:1035900005929A690592059A1A6842F400721A60B7
:1035A00062B6DCE7022A1A680ED142F400621A60A1
:1035B00072B6236806905A6906929A690692069A2C
:1035C0001A6822F48062EAE742F480621A60079087
:1035D0005A6907929B690793079BC0E7032B78D82A
:1035E000012B15D1324639462046FFF7C1FC002891
:1035F000A6D123681A69636A1A70636A0133636229
:10360000238D013B2385638D013B9BB26385AAE734
:10361000022B4FF000023B4641462046009618D14F
:10362000FFF7D5FC00288BD172B623681A6842F4E4
:1036300000721A601A69636A1A70636A01336362FE
:10364000238D013B2385638D013B9BB2638562B66D
:10365000CFE7FFF7BCFC00287FF472AF2268136845
:1036600023F48063136072B623681A69636A1A7060
:1036700046F2A812616A4B1C6362238D013B2385CD
:10368000638D013B9BB26385D9F80030B3FBF2F246
:10369000232353430393039B013B0393039B6BB986
:1036A0002022236384F83D2084F83E30226C42F0CF
:1036B0002002226462B684F83C3041E723685A69EC
:1036C0005007E8D51A6842F400721A601B694B7003
:1036D000B3E7324639462046FFF74AFC00287FF41C
:1036E0002FAF23681A69636A1A70626A531C636297
:1036F000238D013B2385638D013B9BB2638523684A
:10370000596949077FF52FAF1B69537075E700BFF3
:10371000020010000000FFFF040001000000002074
:103720000122014B1A60704720000E420022014B1B
:103730001A60704720000E422DE9F341054638B368
:103740000368DB0710D42B689F075ED42B6819072A
:1037500000F195802B685A0700F1BF80E8690028C6
:1037600040F02C81002029E08F4C636803F00C03AB
:10377000042B07D0636803F00C03082B0AD163689D
:10378000DE0307D523689C03DDD56B68002BDAD1F7
:10379000012013E06B68B3F5803F12D1236843F436
:1037A00080332360FFF736F9064623689803CAD4AE
:1037B000FFF730F9801B6428F7D9032002B0BDE879
:1037C000F0819BB9236823F480332360236823F4BA
:1037D00080232360FFF71EF9064623689903B2D5BC
:1037E000FFF718F9801B6428F7D9E6E7B3F5A02F97
:1037F000236803D143F480232360CFE723F480338D
:103800002360236823F48023CBE7674C636813F0BD
:103810000C0F07D0636803F00C03082B10D163680A
:10382000DA030DD423689B0702D52B69012BAFD196
:1038300023686A6923F0F80343EAC203236085E73B
:103840002A695A4B6AB101221A60FFF7E3F806466B
:1038500023689F07ECD4FFF7DDF8801B0228F7D917
:10386000ABE71A60FFF7D6F80646236898077FF59E
:103870006DAFFFF7CFF8801B0228F6D99DE7AA6944
:10388000494E4B4BDAB101221A60FFF7C3F80446E8
:10389000736A9B070DD54FF4FA52464B1B68B3FB76
:1038A000F2F3019300BF019B5A1E0192002BF9D144
:1038B00050E7FFF7AFF8001B0228E9D97DE71A604F
:1038C000FFF7A8F80446736A9F077FF543AFFFF739
:1038D000A1F8001B0228F6D96FE7334CE369D80042
:1038E00024D40127E36943F08053E361E36903F0E3
:1038F00080530093009B304E3368D90518D5EB6890
:10390000012B26D1236A43F001032362FFF782F8DB
:1039100041F288380646236A9B073FD5002F3FF4C3
:103920001DAFE36923F08053E36117E70027E2E767
:10393000336843F480733360FFF76CF88046336874
:10394000DA05DCD4FFF766F8A0EB08006428F6D9A6
:1039500033E7ABB9236A41F2883823F001032362CD
:10396000236A23F004032362FFF754F80646236A10
:103970009807D3D5FFF74EF8801B4045F7D91CE7D1
:10398000052B236A03D143F004032362BAE723F033
:1039900001032362236A23F00403B6E7FFF73AF832
:1039A000801B4045B7D908E70010024000004242A2
:1039B0008004424200000020007000402A4B5A68F8
:1039C0001C4602F00C02082A3DD00023274E022894
:1039D00033602BD1FFF71EF80746236899011FD4E7
:1039E0002B6AB3F5803F05D16268A96822F40032E2
:1039F0000A436260696A62680B4322F474121343DB
:103A0000636001233360FFF705F8054623689A01D8
:103A10003FF5A8AEFEF7FEFF401B0228F6D9CCE624
:103A2000FEF7F8FFC01B0228D7D9C6E6FEF7F2FF63
:103A3000054623689B017FF595AEFEF7EBFF401B23
:103A40000228F6D9B9E601283FF4B8AE5B682A6AC5
:103A500003F4803191427FF49BAE6A6A03F47013E1
:103A600093423FF47FAE93E6001002406000424272
:103A700030B5184B87B002AC03F110052246186828
:103A80005968083303C2AB421446F7D140F2012310
:103A90001149ADF804304B6803F00C02082A17D125
:103AA000C3F3834206A80244DB0312F8102C0CD5A2
:103AB0004B680A48C3F34043504306AA134413F823
:103AC000143CB0FBF3F007B030BD05485043FAE7B3
:103AD0000248F8E7E8C300080010024000127A002C
:103AE00000093D002DE9F0410D46044610B90120C2
:103AF000BDE8F081444A136803F007038B4228D3E2
:103B000021688E0730D4CA0743D43F4A136803F0B4
:103B10000703AB4265D822683C4D12F0040F6CD10C
:103B2000130706D56B68226923F4605343EAC20386
:103B30006B60FFF79DFF6B68354AC3F30313D35CDB
:103B4000D840344B1860344B1868FEF721FF002032
:103B5000CEE7136823F007030B431360136803F0E9
:103B600007038B42C3D1CBE7284B11F0040F1EBFD4
:103B70005A6842F4E0625A60080742BF5A6842F449
:103B800060525A605A68A06822F0F00202435A60FC
:103B9000B9E762681D4E012A33681AD113F4003F59
:103BA000A5D0736841F2883823F003031343736090
:103BB000FEF730FF07467368626803F00C03B3EB4F
:103BC000820FA2D0FEF726FFC01B4045F3D9032089
:103BD0008EE7022A02D113F0007FE1E713F0020F13
:103BE000DEE7136823F007032B431360136803F029
:103BF0000703AB427FF47BAF8DE76B68E16823F48A
:103C0000E0630B436B608BE7002002400010024032
:103C1000D0C300080000002008000020044B054A23
:103C20005B68C3F30223D35C034A1068D840704733
:103C300000100240E0C3000800000020044B054AC9
:103C40005B68C3F3C223D35C034A1068D840704753
:103C500000100240E0C3000800000020036A70B5B5
:103C600023F001030362036A446882690D6822F04D
:103C700073022A438D6823F002032B430E4DA842A2
:103C800002D00E4EB04210D1CE6823F00803334369
:103C9000A84223F0040302D0084DA84205D1D1E97F
:103CA000055624F4407435432C43446082614A68CD
:103CB0004263036270BD00BF002C0140003401402C
:103CC000036A70B523F480730362036A4468C269AF
:103CD0000D6822F073022A438D6823F4007343EACF
:103CE0000523114DA84203D005F50065A84214D163
:103CF000CD6823F4006343EA05230B4D23F480636E
:103D0000A84203D005F50065A84206D1D1E90556C1
:103D100024F44054354344EA05144460C2614A68BF
:103D2000C263036270BD00BF002C0140036A30B55E
:103D300023F480530362036A4468C2690D6822F465
:103D4000E64242EA05228D6823F4005343EA053334
:103D5000084DA84203D005F50065A84204D14D697D
:103D600024F4804444EA85144460C2614A680264D1
:103D7000036230BD002C01407047034630B590F817
:103D80003E2090F83F0093F8425093F84340D2B25F
:103D9000C0B2EDB2E4B2C1B9012A45D1012D45D17D
:103DA000022283F83E2083F842201A68116A21F02B
:103DB00001011162116A41F00101002011621A68CB
:103DC000136843F00103136030BD042911D10128A9
:103DD0002AD1012CF8D1022283F83F2083F8432016
:103DE0001A68116A21F010011162116A41F0100184
:103DF000E3E7012A18D1012818D1012DE4D1012CC3
:103E0000E2D1022283F83E2083F83F2083F842204B
:103E100083F843201A68116A21F001011162116AC6
:103E200041F001011162DCE70120CDE71046CBE74C
:103E3000244A0368904212D002F5006290420ED0EC
:103E4000B0F1804F0BD0A2F59832904207D002F526
:103E50008062904203D002F5806290421DD14A6890
:103E600023F070031343174A904212D002F5006208
:103E700090420ED0B0F1804F0BD0A2F59832904214
:103E800007D002F58062904203D002F58062904232
:103E900003D1CA6823F4407313434A6923F08003B3
:103EA000134303608B68C3620B688362054B9842BF
:103EB00003D003F50063984201D10B69036301232A
:103EC00043617047002C014010B5044630B390F8B0
:103ED0003D3003F0FF021BB980F83C20FEF792FB57
:103EE0000223206884F83D30211DFFF7A1FF012344
:103EF000002084F8463084F83E3084F83F3084F85F
:103F0000403084F8413084F8423084F8433084F8FB
:103F1000443084F8453084F83D3010BD0120FCE782
:103F200010B5044630B390F83D3003F0FF021BB9E2
:103F300080F83C20FFF720FF0223206884F83D3002
:103F4000211DFFF775FF0123002084F8463084F817
:103F50003E3084F83F3084F8403084F8413084F8B3
:103F6000423084F8433084F8443084F8453084F893
:103F70003D3010BD0120FCE7F8B50D460446002891
:103F80004DD090F83D3003F0FF021BB980F83C2083
:103F9000FEF77AFB0223214684F83D3051F8040BEA
:103FA000836823F4804323F007038360FFF740FF17
:103FB00020682B6886688269A9681E43AB6922F471
:103FC000407222F0030241EA0323134323F47C42AC
:103FD0002B69E9691B0143EA0123E968076A0B437E
:103FE000296A22F0FC0243EA01331343696927F08E
:103FF00022026F68866047EA011783611743012335
:104000000762002084F8463084F83E3084F83F3060
:1040100084F8423084F8433084F83D30F8BD012004
:10402000FCE70000036A70B523F010030362036A23
:10403000446882690D6822F4E64242EA05228D68EE
:1040400023F0200343EA0513104DA84203D005F5E1
:104050000065A84214D1CD6823F0800343EA05131C
:104060000A4D23F04003A84203D005F50065A8429D
:1040700006D1D1E9055624F44064354344EA850469
:10408000446082614A688263036270BD002C014013
:1040900038B590F83C300446012B52D00123082A51
:1040A00080F83C303CD006D8C2B1042A27D000208A
:1040B00084F83C0038BD0C2AF9D10068FFF736FEC1
:1040C00023680969DA6942F40062DA61DA6922F484
:1040D0008062DA61DA6942EA012230E00068FFF7C3
:1040E000BDFD236809699A6942F008029A619A69DC
:1040F00022F004029A619A690A439A61D7E700683C
:10410000FFF790FF236809699A6942F400629A6197
:104110009A6922F480629A619A6942EA0122ECE784
:104120000068FFF7CDFD23680969DA6942F00802EB
:10413000DA61DA6922F00402DA61DA690A43DA61E3
:10414000B5E70220B6E710B584680A4324F47F443B
:1041500042EA03222243826010BD70B590F83C30E1
:104160000446012B4FF0020027D0012384F83D00C4
:10417000206884F83C30836823F47F4323F077037E
:1041800083600B68602B4DD032D8402B62D015D89D
:10419000202B03D009D833F0100208D1826822F016
:1041A0007002134343F0070320E0302BF6D00123C5
:1041B000002084F83D3084F83C0070BD502BF6D1CF
:1041C0004A68CE68016A056A21F00A0125F00105F6
:1041D000056283690A4323F0F00343EA061383610F
:1041E0000262836823F0700343F057038360DEE7C5
:1041F000702B0CD0B3F5005FD9D1CB68D1E9012188
:10420000FFF7A1FF2268936843F4804308E0CB687E
:10421000D1E90121FFF797FF2268936843F0770304
:104220009360C4E74D68CE68016A21F01001016215
:104230008269036A22F4704223F0A00343EA051363
:1042400042EA063282610362836823F0700343F01E
:104250006703CBE74A68CE68016A056A21F00A0164
:1042600025F00105056283690A4323F0F00343EA60
:10427000061383610262836823F0700343F04703EF
:10428000B4E710B50124036A01F01F018C4023EA52
:1042900004030362036A8A401A43026210BD0000ED
:1042A00010B5044629B990F83E30012B1DD00120ED
:1042B00032E0042907D190F83F30012BF7D10223D7
:1042C00080F83F3014E0082907D190F84030012BE6
:1042D000EDD1022380F840300AE090F84130012B04
:1042E000E5D1022380F8413002E0022380F83E301D
:1042F00001222068FFF7C5FF2368154A93420CD0BE
:1043000014498B4209D0B3F1804F10D19A6802F062
:104310000702062A16D1002010BD596C934241F4C1
:1043200000415964F2D00B4A9342EFD0EBE70A4ABE
:104330009342EBD002F580629342E7D002F58062AF
:104340009342E3D01A6842F001021A60E3E700BF2B
:10435000002C01400034014000040040FFF7A0BFE2
:1043600030B590F83C300246012B4FF002002AD0C5
:10437000136882F83D005C680D6824F070042C43DB
:1043800098685C60104CA34212D004F50064A3420C
:104390000ED0B3F1804F0BD0A4F59834A34207D0D0
:1043A00004F58064A34203D004F58064A34204D1E1
:1043B000496820F08000014399600123002082F8C1
:1043C0003D3082F83C0030BD002C014090F83C307C
:1043D000012B1FD0CB688A6823F4407313434A68CB
:1043E00023F4806313430A6823F4006313430A69C8
:1043F00023F4805313434A6923F400531343CA69D7
:1044000023F48043134302685364002380F83C3054
:1044100018467047022070470368DA6822F49072E9
:10442000DA605A6922F001025A61026B012A02BF66
:10443000DA6822F01002DA60202380F83E30002390
:104440000363704710B504460368C1681A6922F413
:1044500040520A431A6182680069D9680243606960
:1044600021F4B05121F00C0102430A43DA605A6989
:10447000A16922F440720A435A610E4A934215D14F
:10448000FFF7DCFB19234343626820689200B3FB0B
:10449000F2F36422B3FBF2F102FB11331B0132335E
:1044A000B3FBF2F303EB0113836010BDFFF7B6FB20
:1044B000E8E700BF00380140F8B504460E4617464D
:1044C0001D462268136836EA030301D1002014E078
:1044D0006B1CF7D095B923680320DA6822F4D072F8
:1044E000DA605A6922F001025A61202384F83D30D3
:1044F00084F83E30002384F83C30F8BDFEF78AFA99
:10450000C01B8542DDD2E6E710B5044640B390F803
:104510003D3003F0FF021BB980F83C20FEF754F950
:104520002423226884F83D30D368204623F40053C6
:10453000D360FFF787FF236800201A6922F49042B6
:104540001A615A6922F02A025A61DA6842F400526A
:10455000DA602023206484F83D3084F83E3010BDBA
:104560000120FCE72DE9F843994690F83D300446D8
:10457000202B0E46174648D1002944D0002A42D0AD
:1045800090F83C30012B40D00123002580F83C30CE
:104590002123056480F83D30FEF73CFAA36880468D
:1045A000B3F5805FA784E78403D123690BB935464F
:1045B0001E46002384F83C30E38C9BB253B94B4633
:1045C000424640212046FFF777FF50B9202384F868
:1045D0003D3007E04B46424680212046FFF76CFF06
:1045E00010B10320BDE8F88322684EB935F8023BCC
:1045F000C3F308035360E18C013989B2E184DBE73E
:1046000016F8013BF6E70120ECE70220EAE77047E5
:10461000704708B50023406AC385C384FFF7F8FFDD
:1046200008BD704713B590F83E30222B49D1816800
:10463000836AB1F5805F026833D10169002933D103
:104640005268C2F3080223F8022BC48D8362013C36
:10465000A4B2C4851CBB0368DA6822F02002DA60C9
:10466000DA6822F48072DA605A6922F001025A6133
:10467000202280F83E20026B012A1FD10463DA68F1
:1046800022F01002DA601A68D20605D501941A6881
:1046900001925B680193019B818DFFF7C2FF0020AF
:1046A00010E039B9016929B95268D2B21A70836A27
:1046B0000133CAE7526802F07F02F7E7FDF796F987
:1046C000EDE7022002B010BD036837B51A68044652
:1046D00012F00F0FD9685D6908D195065FD58D0678
:1046E0005DD503B0BDE83040FFF79CBF05F0010089
:1046F00001F49075054352D0D50705D5CB0542BFCF
:10470000236C43F001032364550704D518B1236CCF
:1047100043F002032364930704D518B1236C43F0DC
:1047200004032364150707D501F0200303431EBFCC
:10473000236C43F008032364236C53B3920604D51F
:104740008B0602D52046FFF76DFF236820465B6984
:10475000256C03F0400305F008051D431BD0FFF74F
:104760005BFE23685A69550610D55A69A06B22F082
:1047700040025A6150B1534B4363FEF7E9F940B12F
:10478000A06B436B03B0BDE8304018472046FFF7ED
:104790003FFF03B030BDFFF73BFF2564F9E7206B17
:1047A000012855D1D00653D5CD0651D50021019110
:1047B0001A6801925A680192019A5A6912F04002ED
:1047C0002AD0A06B0268526892B2002AE1D0A58D6F
:1047D0009542DED9E2858269202A15D0DA6822F472
:1047E0008072DA605A6922F001025A615A6922F035
:1047F00040025A61202284F83E202163DA6822F0C8
:104800001002DA60FEF786F9E38DA18DC91A89B22C
:104810002046FFF706FFBCE7E18D88B2E18D89B243
:104820000029B6D0A18D091A89B20029B1D0D86863
:1048300020F49070D860586920F001005861202061
:1048400084F83E002263DA6822F01002DA60DFE7C3
:10485000100626D50D0624D594F83D20212A98D19E
:10486000A168226AB1F5805F16D12169A1B932F839
:10487000021BC1F3080159602262E28C013A92B234
:10488000E284002A85D1DA6822F08002DA60DA68F0
:1048900042F04002DA607CE7511C216212785A60D3
:1048A000EBE750067FF575AF4A067FF572AFDA6821
:1048B000204622F04002DA60202384F83D30FFF7E2
:1048C000A6FE66E713460008C2858285816203461C
:1048D00022220020186483F83C0083F83E201B68E5
:1048E000DA6842F48072DA605A6942F001025A6171
:1048F000DA6842F02002DA60704770B490F83E60E7
:10490000202E10D161B15AB190F83C40012C0AD050
:10491000012480F83C400024046370BCFFF7D4BF3E
:10492000012070BC70470220FBE70000EFF3058315
:1049300013B16FF005007047EFF31083002BF8D12F
:10494000074B1868022806D1EFF31183002BF0D132
:104950004FF0FF3070470028FAD101221A607047EB
:104960006C04002010B5EFF3058313B16FF0050060
:1049700010BDEFF31084002CF8D1094B1A68022AFD
:1049800006D1EFF31183002BF0D14FF0FF30EFE7AA
:10499000012AFAD102221A6000F0A0FD2046E7E7C2
:1049A0006C040020F0B51446002287B00B46059237
:1049B000EFF3058252BBEFF310823ABB264A12682E
:1049C000022A02D1EFF3118202BBF8B100228DF866
:1049D0001320002C30D0216809B90DF11301A5690D
:1049E000002D08BF18256A1E372AAC462AD86268EF
:1049F000D20727D4666966B1B208D4E9027E57B1FE
:104A0000BEF15B0F02D9246904B1EEB9059807B075
:104A1000F0BD8022F1E7BEF1000FF7D12469002C30
:104A2000F4D105ACCDE900C492B200F02AFD012812
:104A30001CBF00230593E9E74FF0180C80220DF10D
:104A40001301EEE70020E2E7CDE90147009500F011
:104A5000E1FC0590DAE700BF6C04002008B5EFF335
:104A6000058313B16FF0050008BDEFF31083002B31
:104A7000F8D1074B1B68022B03D1EFF31183002BF6
:104A8000F0D10028F0D000F07FFE0020ECE700BF5E
:104A90006C040020034B0360034B0B608023136006
:104AA000704700BF1004002010020020034B036079
:104AB000034B0B604FF48073136070477008002045
:104AC000700400204FF0FF3200F10803C0E9022318
:104AD0004360036100230360704700230361704754
:104AE00043689A684B608A609A685160996003686D
:104AF000086101330360704730B50C68631C0AD14C
:104B000003695A684A6091608B6059600368086164
:104B10000133036030BD00F1080213465268156886
:104B2000A542FAD9EDE70369D0E901128A60516024
:104B30005968814208BF5A60002202611A68013A2E
:104B40001A601868704710B5044601F0DBF9A46BD1
:104B500001F0FAF9B4FA84F0400910BDF8B5154631
:104B6000026C0446866B52B9076847BB406800F088
:104B700043FF0546676001362846A663F8BD65B960
:104B8000806801F095FEA368226C13446268A360FC
:104B90009342F0D32368A360EDE7C06801F088FE7C
:104BA000226CE36851429B1A2268E36093423EBF45
:104BB00063685B18E360022D01D116B1013E002548
:104BC000D9E73546D7E703461A6C084610B462B1F8
:104BD000DC68596814448C4228BF1968DC6028BF1F
:104BE000D960D96810BC01F063BE10BC704770B5C5
:104BF000044601F087F994F8455004F124066DB29B
:104C0000002D14DCFF2384F8453001F09DF901F0FC
:104C100079F994F8445004F110066DB2002D12DCBD
:104C2000FF2384F84430BDE8704001F08DB9636A19
:104C3000002BE7D0304600F041FE08B100F0C6FE80
:104C4000013D6DB2DCE72369002BE9D0304600F06E
:104C500035FE08B100F0BAFE013D6DB2DEE700009E
:104C600038B50D46044640B94FF0500383F3118820
:104C7000BFF36F8FBFF34F8FFEE701F043F9D4E925
:104C80000F314B432268D0185B1A13446060E36015
:104C90000020FF23A063A26084F8443084F84530EC
:104CA00095B9236963B104F1100000F007FE38B133
:104CB0004FF08052094B1A60BFF34F8FBFF36F8FD5
:104CC00001F042F9012038BD04F11000FFF7FAFEAF
:104CD00004F12400FFF7F6FEF2E700BF04ED00E068
:104CE00037B50D461C4640B94FF0500383F3118889
:104CF000BFF36F8FBFF34F8FFEE743B94FF0500301
:104D000083F31188BFF36F8FBFF34F8FFEE74AB174
:104D100091B94FF0500383F31188BFF36F8FBFF346
:104D20004F8FFEE741B14FF0500383F31188BFF37B
:104D30006F8FBFF34F8FFEE750230193019B502BE2
:104D400008D04FF0500383F31188BFF36F8FBFF388
:104D50004F8FFEE70121002D08BF2246C4E90F0551
:104D600084F8461020462260FFF77AFF20469DF81F
:104D7000183084F84C3003B030BD00002DE9FF47F7
:104D800088461F460446019240B94FF0500383F312
:104D90001188BFF36F8FBFF34F8FFEE751B9036CDC
:104DA00043B14FF0500383F31188BFF36F8FBFF30C
:104DB0004F8FFEE7022F0BD1E36B012B08D04FF092
:104DC000500383F31188BFF36F8FBFF34F8FFEE75C
:104DD00000F002FE064650B9019B4BB14FF0500364
:104DE00083F31188BFF36F8FBFF34F8FFEE7002669
:104DF0004FF00009DFF8E4A037E0019D1DB901F094
:104E0000A3F8002050E016B902A800F097FD01F0C9
:104E10009BF800F0A7FB01F075F894F84430FF2BE5
:104E200008BF84F8449094F84530FF2B08BF84F8FD
:104E3000459001F089F801A902A800F08BFD002837
:104E400046D101F05FF8A26BE36B9A422FD101F0DB
:104E50007BF8019904F1100000F0F6FC2046FFF702
:104E6000C6FE00F01DFC50B3012601F04BF8A26B0A
:104E7000E36B9A4201D3022FBFD13A464146204606
:104E8000FFF76CFE636A1BB104F1240000F016FD0D
:104E900038B14FF08052114B1A60BFF34F8FBFF300
:104EA0006F8F01F051F8012004B0BDE8F08701F0E8
:104EB0004BF82046FFF79BFE00F0F2FBD4E74FF0E3
:104EC0008053CAF80030BFF34F8FBFF36F8FCBE72B
:104ED0002046FFF78CFE00F0E3FB92E704ED00E0D4
:104EE0002DE9F843894690461F46044640B94FF0E5
:104EF000500383F31188BFF36F8FBFF34F8FFEE72B
:104F000051B9036C43B14FF0500383F31188BFF3E1
:104F10006F8FBFF34F8FFEE7022F0BD1E36B012B97
:104F200008D04FF0500383F31188BFF36F8FBFF3A6
:104F30004F8FFEE701F0C6F8EFF311864FF05003F4
:104F400083F31188BFF36F8FBFF34F8FA26BE36BB7
:104F50009A4201D3022F22D194F845503A4649464D
:104F600020466DB2FFF7FAFD6B1C13D1636A0BB9D3
:104F700001200BE004F1240000F0A0FC0028F7D091
:104F8000B8F1000FF4D00120C8F8000086F31188B2
:104F9000BDE8F88301356DB284F84550E8E700209C
:104FA000F4E700002DE9F04385B00F460446019276
:104FB00040B94FF0500383F31188BFF36F8FBFF3F5
:104FC0004F8FFEE751B9036C43B14FF0500383F3A9
:104FD0001188BFF36F8FBFF34F8FFEE700F0FCFC2B
:104FE000064650B9019B4BB14FF0500383F3118833
:104FF000BFF36F8FBFF34F8FFEE700264FF000081F
:10500000DFF8DC903BE0019D1DB900F09DFF002022
:1050100052E016B902A800F091FC00F095FF00F0F4
:10502000A1FA00F06FFF94F84430FF2B08BF84F81A
:10503000448094F84530FF2B08BF84F8458000F089
:1050400083FF01A902A800F085FC00283DD120467D
:10505000FFF779FD98B3019904F1240000F0F4FB07
:105060002046FFF7C4FD00F01BFB38B94FF080531A
:10507000C9F80030BFF34F8FBFF36F8F012600F0E8
:1050800041FFA56B002DBED039462046013DFFF7FC
:105090009AFDA563236963B104F1100000F00EFCD2
:1050A00038B14FF080520E4B1A60BFF34F8FBFF3F1
:1050B0006F8F00F049FF012005B0BDE8F083204666
:1050C000FFF795FD00F0ECFAD8E72046FFF78FFDDB
:1050D00000F0E6FA2046FFF736FD0028CED096E72E
:1050E00004ED00E0002330B5064A52F8335002EBDD
:1050F000C3041DB942F83310606030BD0133082B82
:10510000F3D1FAE70825002070B504460D4616468F
:1051100000F0F8FE94F84430FF2B04BF002384F81D
:10512000443094F84530FF2B04BF002384F8453009
:1051300000F00AFFA36B2BB93246294604F1240084
:1051400000F09CFB2046BDE87040FFF750BD00001A
:105150002DE9F041044600F0D5FE2F4B2F4D1A6883
:105160002F4F01321A602E68002E49D12C601B6827
:10517000012B1FD1B84640460136FFF7A3FC382E5D
:1051800008F11408F7D1DFF8C480264E4046FFF737
:1051900099FC3046FFF796FC2348FFF793FC234821
:1051A000FFF790FC2248FFF78DFC224BC3F80080EC
:1051B000214B1E601420214A136801331360204ADA
:1051C00063641168E36A8B4200FB037004F104011D
:1051D00088BF1360FFF784FC00F0B6FE194B1B6814
:1051E00063B12B68DA6AE36A9A4207D24FF08052C1
:1051F000154B1A60BFF34F8FBFF36F8FBDE8F0817F
:10520000104B1B68002BD5D12B68DA6AE36A9A42EF
:1052100098BF2C60CEE700BF380D0020CC080020DE
:10522000D8080020640D0020800D0020AC0D002067
:10523000980D0020D0080020D4080020480D002040
:105240004C0D0020940D002004ED00E0500D0020D6
:10525000064A13681968064B19B94FF0FF321A60F5
:1052600070471268D268D2685268F8E7D008002008
:10527000780D00202DE9F0470D46DDE909844FEA5D
:1052800082094A460646A521206B1F4601F01EFBF7
:10529000226BA9F1040991446B1E29F0070904F15E
:1052A00034020F3513F8011F02F8011B197809B1F8
:1052B000AB42F7D1089D4FF0000A372D28BF3725A4
:1052C000201DC4E9135AE56284F843A0FFF705FCEA
:1052D000C5F1380504F11800FFF7FFFBC4F854A02E
:1052E0003A46314648462461A561646284F858A074
:1052F00000F0DEFD2060B8F1000F01D0C8F80040DA
:10530000BDE8F08710B590F8593004463BB9006B02
:1053100000F0B4FF2046BDE8104000F0AFBF012B05
:10532000F9D0022B08D04FF0500383F31188BFF35C
:105330006F8FBFF34F8FFEE710BD000080B5DFF821
:105340005C80124F124C134D236863B9124B1B68DB
:10535000012BF8D94FF08053C8F80030BFF34F8FBE
:10536000BFF36F8FEEE700F0CDFDFB68DE68301D08
:10537000FFF7D9FB2B68013B2B602368013B2360BF
:1053800000F0E2FD3046FFF7BDFFDDE7AC0D002089
:105390003C0D0020380D0020D808002004ED00E06E
:1053A000F8B50546154B164E1C6830680F4604309C
:1053B000FFF7B9FB6B1C334607D137B13168114891
:1053C0000431BDE8F840FFF78BBB1A6864195460DC
:1053D00007D30D4A10681968BDE8F8400431FFF79B
:1053E0008BBB0A4A106819680431FFF785FB084B2C
:1053F0001A68A24288BF1C60F8BD00BFC00D002023
:10540000CC080020980D0020D4080020D0080020EF
:10541000780D002070B586B0DDE90B5445B94FF02A
:10542000500383F31188BFF36F8FBFF34F8FFEE7F5
:1054300044B94FF0500383F31188BFF36F8FBFF36C
:105440004F8FFEE75C260496049E5C2E08D04FF03A
:10545000500383F31188BFF36F8FBFF34F8FFEE7C5
:105460002563022584F8595005AD01950A9D0294E3
:105470000095FFF7FFFE2046FFF76AFE059806B08D
:1054800070BD2DE9F043074685B09000884616466A
:10549000994600F069FE0546E8B15C2000F064FE24
:1054A0000446A8B1002380F859300D9B0563019391
:1054B0000C9B324641460290009338464B46FFF71C
:1054C000D9FE2046FFF744FE012005B0BDE8F08379
:1054D000284600F0D3FE4FF0FF30F6E710B5002469
:1054E00088B007AA06A905A8CDE90544FFF7D2FAB6
:1054F000059B079A0293069B1549CDE90043154881
:105500002346FFF787FFA8B100F00AFB012813D15B
:105510004FF0500383F31188BFF36F8FBFF34F8FAA
:105520004FF0FF320C4B1A600C4B18600C4B1C6098
:1055300000F070FD08B010BD0130FBD14FF05003FA
:1055400083F31188BFF36F8FBFF34F8FFEE700BF68
:10555000F9C300083D530008780D0020940D002089
:10556000C00D0020024A136801331360704700BF6A
:10557000440D0020014B1868704700BFC00D00208B
:105580002DE9F84F3B4B1B68002B6DD13A4B1D6842
:1055900001351D60BDB9394B1A68126842B14FF030
:1055A000500383F31188BFF36F8FBFF34F8FFEE774
:1055B000334A1968106818601160324A1368013361
:1055C0001360FFF745FE304E002433682F4FAB4287
:1055D00010D92F4B1B68DA6A14235343FB58022B54
:1055E00028BF01242B4B1B68002B0CBF2046012039
:1055F000BDE8F88FDFF88490DFF8A0A0D9F800307C
:105600001B681BB94FF0FF333360E2E7D9F8003075
:10561000DB68D3F80CB0DBF80420954201D232608D
:10562000D7E70BF104084046FFF77DFADBF82820A6
:105630001AB10BF11800FFF776FA1423DBF82C00EF
:10564000DAF800204146904288BFCAF8000003FB08
:105650000070FFF745FA0E4BDBF82C201968CB6A77
:105660009A4228BF0124C9E70B4A0024136801337A
:105670001360B7E7440D0020C00D0020D0080020C3
:10568000D40800207C0D0020780D0020D8080020D0
:10569000CC080020C40D0020400D00204C0D00203F
:1056A0002DE9F0412F4C236843B94FF0500383F3A9
:1056B0001188BFF36F8FBFF34F8FFEE700F022FC1E
:1056C0002368013B236024682CB1002400F03CFCDB
:1056D0002046BDE8F081244B1B68002BF5D0234DFC
:1056E000234EDFF8A0801DE0EB68DC68271D04F185
:1056F0001800FFF718FA3846FFF715FA1420E36A86
:10570000326800FB03809342394688BF3360FFF75D
:10571000E7F9184BE26A1B68DB6A9A4202D301225E
:10572000154B1A602B68002BDED10CB1FFF790FDF2
:10573000124D2C6844B101270F4EFFF721FF00B135
:105740003760013CF9D12C600B4B1B68002BBCD09F
:105750004FF080520A4B1A60BFF34F8FBFF36F8F29
:105760000124B3E7440D0020380D0020800D0020F7
:105770004C0D0020CC080020C40D0020400D00205E
:1057800004ED00E0D808002008B540B94FF0805281
:105790000D4B1A60BFF34F8FBFF36F8F08BD0B4BDC
:1057A000196841B14FF0500383F31188BFF36F8F35
:1057B000BFF34F8FFEE7FFF7D5FEFFF7F1FDFFF7D1
:1057C0006FFF0028E2D0E9E704ED00E0440D00207F
:1057D000184BF0B51A68184B12B101221A60F0BDCF
:1057E0001A60164A14271646154D2B6807FB03F15D
:1057F0005458501894B14468083164680A4494427B
:1058000008BF6268446008BF4260142202FB036262
:105810005268D1680B4A11602B60E0E743B94FF042
:10582000500383F31188BFF36F8FBFF34F8FFEE7F1
:10583000013BDBE7440D0020C40D0020D808002008
:105840004C0D0020CC08002010B50C4640B94FF09C
:10585000500383F31188BFF36F8FBFF34F8FFEE7C1
:10586000054B19681831FFF747F92046BDE810408D
:105870000121FFF795BD00BFCC08002038B50D46CB
:10588000144640B94FF0500383F31188BFF36F8F74
:10589000BFF34F8FFEE7084B19681831FFF720F967
:1058A000002C214608BF2846BDE8384018BF4FF0FD
:1058B000FF30FFF775BD00BFCC08002038B5C368C6
:1058C000DC6844B94FF0500383F31188BFF36F8F46
:1058D000BFF34F8FFEE704F118052846FFF723F9C1
:1058E000104B1B68DBB9251D2846FFF71CF90E4A33
:1058F00014201168E36A8B42294688BF13600B4A63
:1059000000FB0320FFF7ECF8094BE26A1B68DB6A37
:105910009A4285BF0120074B0020186038BD2946F8
:105920000548EFE7440D00204C0D0020D80800206A
:10593000CC080020C40D0020800D0020034B1B6804
:105940000360034B1B684360704700BF7C0D002061
:10595000C00D002070B50C46054640B94FF050030D
:1059600083F31188BFF36F8FBFF34F8FFEE741B909
:105970004FF0500383F31188BFF36F8FBFF34F8F46
:10598000FEE700F0BFFA0F4B196823685A1C10D0CD
:105990000D482E6800686A68864201D08A420FD995
:1059A000881A83420AD95B1A134428462360FFF7FA
:1059B000C5FF002400F0C8FA204670BD0023236014
:1059C0000124F7E7C00D00207C0D00200122014BCF
:1059D0001A607047C40D0020054B1B6833B1054B9E
:1059E0001B68002B0CBF022000207047012070476D
:1059F000940D0020440D002038B508B9002038BDB2
:105A00001B4B1C68844208D04FF0500383F311886D
:105A1000BFF36F8FBFF34F8FFEE7236D43B94FF096
:105A2000500383F31188BFF36F8FBFF34F8FFEE7EF
:105A3000E16AE26C013B91422365DFD0002BDDD1AE
:105A4000251D2846FFF76FF81420E36CC3F13802D8
:105A5000A261084AE36211688B4288BF1360064A5C
:105A6000294600FB0320FFF73BF80120C7E700BFF2
:105A7000CC0800204C0D0020D8080020F7B5114CB0
:105A800000F040FA2568BDB90F4F104E3846FFF7B9
:105A900019F83046FFF716F80D4B10211F600D4B1B
:105AA0000A201E600C4A0D4B0095FFF719F9206083
:105AB00010B10B49FFF716FB03B0BDE8F04000F052
:105AC00043BA00BFEC0E0020700E0020840E0020B0
:105AD000C80D0020CC0D0020D00D00209C0E002011
